S00D00005465656B6F2E737265631F
S11300000C94D1000C94EE000C94EE000C94EE00D1
S11300100C94EE000C9428010C94EE000C94EE0069
S11300200C94EE000C94EE000C94EE000C94EE0094
S11300300C94EE000C94EE000C94EE000C94EE0084
S11300400C948A100C94EE000C94EE000C94EE00C8
S11300500C94C30F0C94810F0C94EE000C94EE00DE
S11300600C94EE000C94EE000C94EE000C94EE0054
S11300700C94EE000C94EE000C94EE004375727236
S1130080656E7420506C617965723A20312028675E
S11300907265656E29002020202020202020202049
S11300A0202020202020202020202020202020204C
S11300B00043757272656E7420506C617965723A92
S11300C0203220287265642900202020202020204E
S11300D0202020202020202020202020202020201C
S11300E020202000507265737320616E7920494F7F
S11300F0626F61726420627574746F6E20747769C4
S113010063650047414D45204F56455200706C6170
S11301107965722025642069732074686520776985
S11301206E6E6572002020202020202020202020B8
S11301300047616D65205061757365640043757295
S113014072656E7420506C617965723A2031202892
S1130150677265656E290043535345323031302F41
S1130160373230312070726F6A656374206279208F
S11301704A65616E2D506965727265204C65205226
S11301806F75782034353833393537330054656525
S11301906B6F001B5B324A001B5B25643B25644884
S11301A0000011241FBECFEFD8E0DEBFCDBF11E0A9
S11301B0A0E0B1E0ECE3F8E202C005900D92A432B5
S11301C0B107D9F722E0A4E2B1E001C01D92A6373D
S11301D0B207E1F70E94BD0E0C941C140C940000AD
S11301E0E8E6F0E08081826080838BB382608BBB21
S11301F0ECE6F0E080818F60808310922401089502
S113020080912401181614F5809125016FB7F89494
S113021091E009C0F901EB5DFE4F4081F901EC5D0D
S1130220FE4F40839F5F292F30E040912401042E2C
S1130230000C550B241735076CF390912401915051
S11302409093240166231CF4789408958FEF089505
S11302501F920F920FB60F9211242F933F934F9337
S11302608F939F93EF93FF9343B14F7080E026C029
S11302709091240194300CF5242F30E0082E02C014
S1130280359527950A94E2F720FF17C0209129019C
S113029030E0082E02C0359527950A94E2F720FD38
S11302A00CC0E091240191E09E0F909324010E2E46
S11302B0000CFF0BEB5DFE4F80838F5F8430C0F238
S11302C040932901FF91EF919F918F914F913F911D
S11302D02F910F900FBE0F901F9018950F931F939F
S11302E0CF93DF93CDB7DEB768970FB6F894DEBF30
S11302F00FBECDBF0E94210D80E090E009C0E1E077
S1130300F0E0EC0FFD1FE80FF91F25E320830196B1
S113031088309105A4F300E010E008C0BE016F5FCF
S11303207F4F802F0E94040D0F5F1F4F0530110572
S1130330ACF30AE010E008C0BE016F5F7F4F802F6E
S11303400E94040D0F5F1F4F00311105ACF380E0D4
S113035090E009C0E9E0F0E0EC0FFD1FE80FF91FA1
S113036025E32083019680319105A4F300E010E099
S113037008C0BE01675F7F4F802F0E94E70C0F5FAC
S11303801F4F02301105ACF307E010E008C0BE01B6
S1130390675F7F4F802F0E94E70C0F5F1F4F08306D
S11303A01105ACF368960FB6F894DEBF0FBECDBF4F
S11303B0DF91CF911F910F9108951F93CF93DF93F6
S11303C0CDB7DEB728970FB6F894DEBF0FBECDBF0A
S11303D00E94210D10E029C0E12FF0E0EC5EFE4FF9
S11303E0908190FF02C02FE001C020EF87E013C08E
S11303F0992344F4E1E0F0E0EC0FFD1FE80FF11D58
S1130400208307C0E1E0F0E0EC0FFD1FE80FF11DD1
S11304101082990F81508111EBCF1982BE016F5F59
S11304207F4F812F0E94040D1F5F1031A8F2289680
S11304300FB6F894DEBF0FBECDBFDF91CF911F91F1
S11304400895CF93DF93D82FC62F413071F04230F7
S113045071F0433031F40E94A602813051F44FED23
S11304600BC0453041F441E107C040EF05C04FE007
S113047003C04CE301C040E062E06C0F85E08D0FE7
S11304800E94C80CDF91CF9108950E946E0130E064
S113049014C0832F90E0FC01EE0FFF1FEE0FFF1F2F
S11304A0E80FF91FE45CFE4FE20FF11D10822F5F8D
S11304B001C020E0253068F33F5F3530D0F381E0A0
S11304C08093550182E08093590180933B011092FF
S11304D0580110922C010895853080F4653080F421
S11304E090E0FC01EE0FFF1FEE0FFF1FE80FF91F56
S11304F0E45CFE4FE60FF11D8081089580E00895CD
S113050080E00895CF93DF9380915801882371F0A0
S1130510D0913B01C09159016D2F8C2F0E946C0228
S1130520482F6D2F8C2F0E94210207C043E0609159
S11305303B01809159010E9421029091580181E070
S1130540891B80935801DF91CF91089580912A01EE
S1130550089580915501813001F567E070E08EE1E6
S113056090E00E94481089EC90E09F938F930E9442
S11305702E1167E070E08EE190E00E94481081EB5C
S113058090E09F938F930E942E1182E080935501F7
S11305900F900F900F900F90089567E070E08EE138
S11305A090E00E94481086E990E09F938F930E9408
S11305B02E1167E070E08EE190E00E9448108CE715
S11305C090E09F938F930E942E1181E080935501B8
S11305D00F900F900F900F90089580915901082E5D
S11305E0000C990B20913B01FC01EE0FFF1FEE0F55
S11305F0FF1FE80FF91FE45CFE4FE20FF11D27FD1A
S1130600FA958081811102C081E0089580E0089507
S113061080910101282F30E02F5F3F4F609100014E
S1130620462F50E0F901EE0FFF1FEE0FFF1FE20F00
S1130630F31FE45CFE4FE40FF51F9081911115C088
S11306402530310594F4F901EE0FFF1FEE0FFF1F63
S11306502E0F3F1F245C3E4FF901E40FF51F95E078
S1130660908345E08F5F0E94210280910101282F31
S113067030E02150310960910001462F50E0F9012A
S1130680EE0FFF1FEE0FFF1FE20FF31FE45CFE4FA0
S1130690E40FF51F9081911114C0332394F0F901F4
S11306A0EE0FFF1FEE0FFF1F2E0F3F1F245C3E4F68
S11306B0F901E40FF51F95E0908345E081500E9415
S11306C0210280910101282F30E02F5F3F4F60917C
S11306D00001462F50E04F5F5F4FF901EE0FFF1FFF
S11306E0EE0FFF1FE20FF31FE45CFE4FE40FF51F54
S11306F09081911119C025303105B4F4453051056C
S11307009CF4F901EE0FFF1FEE0FFF1F2E0F3F1F8A
S1130710245C3E4FF901E40FF51F95E090836F5F71
S113072045E08F5F0E94210280910101282F30E073
S11307302F5F3F4F60910001462F50E04150510917
S1130740F901EE0FFF1FEE0FFF1FE20FF31FE45C32
S1130750FE4FE40FF51F9081911118C0253031052B
S1130760ACF455239CF0F901EE0FFF1FEE0FFF1FB1
S11307702E0F3F1F245C3E4FF901E40FF51F95E057
S11307809083615045E08F5F0E94210280910101B6
S1130790482F50E060910001262F30E02F5F3F4F3B
S11307A0FA01EE0FFF1FEE0FFF1FE40FF51FE45CCD
S11307B0FE4FE20FF31F9081911115C025303105D2
S11307C094F4FA01EE0FFF1FEE0FFF1F4E0F5F1F91
S11307D0445C5E4FFA01E20FF31F95E090836F5F74
S11307E045E00E94210280910101482F50E0609170
S11307F00001262F30E021503109FA01EE0FFF1FCE
S1130800EE0FFF1FE40FF51FE45CFE4FE20FF31F32
S11308109081911114C0332394F0FA01EE0FFF1F5D
S1130820EE0FFF1F4E0F5F1F445C5E4FFA01E20F95
S1130830F31F95E09083615045E00E94210280916E
S11308400101282F30E02150310960910001462F29
S113085050E04F5F5F4FF901EE0FFF1FEE0FFF1FD8
S1130860E20FF31FE45CFE4FE40FF51F908191113A
S113087018C03323B4F0453051059CF4F901EE0F50
S1130880FF1FEE0FFF1F2E0F3F1F245C3E4FF90189
S1130890E40FF51F95E090836F5F45E081500E945F
S11308A0210280910101282F30E02150310960910B
S11308B00001462F50E041505109F901EE0FFF1F8E
S11308C0EE0FFF1FE20FF31FE45CFE4FE40FF51F72
S11308D09081911117C03323ACF055239CF0F9019A
S11308E0EE0FFF1FEE0FFF1F2E0F3F1F245C3E4F26
S11308F0F901E40FF51F95E09083615045E08150C4
S11309000E942102089580910101282F30E02F5F79
S11309103F4F60910001462F50E0F901EE0FFF1F99
S1130920EE0FFF1FE20FF31FE45CFE4FE40FF51F11
S11309309081953089F4F901EE0FFF1FEE0FFF1F30
S11309402E0F3F1F245C3E4FF901E40FF51F108268
S113095040E08F5F0E94210280910101282F30E046
S11309602150310960910001462F50E0F901EE0F4A
S1130970FF1FEE0FFF1FE20FF31FE45CFE4FE40FB7
S1130980F51F9081953089F4F901EE0FFF1FEE0FEA
S1130990FF1F2E0F3F1F245C3E4FF901E40FF51F8C
S11309A0108240E081500E94210280910101282F91
S11309B030E02F5F3F4F60910001462F50E04F5FC2
S11309C05F4FF901EE0FFF1FEE0FFF1FE20FF31F42
S11309D0E45CFE4FE40FF51F9081953091F4F9012A
S11309E0EE0FFF1FEE0FFF1F2E0F3F1F245C3E4F25
S11309F0F901E40FF51F10826F5F40E08F5F0E94E2
S1130A00210280910101282F30E02F5F3F4F609138
S1130A100001462F50E041505109F901EE0FFF1F2C
S1130A20EE0FFF1FE20FF31FE45CFE4FE40FF51F10
S1130A309081953091F4F901EE0FFF1FEE0FFF1F27
S1130A402E0F3F1F245C3E4FF901E40FF51F108267
S1130A50615040E08F5F0E94210280910101482F84
S1130A6050E060910001262F30E02F5F3F4FFA01E4
S1130A70EE0FFF1FEE0FFF1FE40FF51FE45CFE4FA8
S1130A80E20FF31F9081953089F4FA01EE0FFF1FF6
S1130A90EE0FFF1F4E0F5F1F445C5E4FFA01E20F23
S1130AA0F31F10826F5F40E00E94210280910101D8
S1130AB0482F50E060910001262F30E02150310989
S1130AC0FA01EE0FFF1FEE0FFF1FE40FF51FE45CAA
S1130AD0FE4FE20FF31F9081953089F4FA01EE0F77
S1130AE0FF1FEE0FFF1F4E0F5F1F445C5E4FFA01A6
S1130AF0E20FF31F1082615040E00E9421028091B6
S1130B000101282F30E02150310960910001462F66
S1130B1050E04F5F5F4FF901EE0FFF1FEE0FFF1F15
S1130B20E20FF31FE45CFE4FE40FF51F9081953054
S1130B3091F4F901EE0FFF1FEE0FFF1F2E0F3F1F61
S1130B40245C3E4FF901E40FF51F10826F5F40E013
S1130B5081500E94210280910101282F30E0215010
S1130B60310960910001462F50E041505109F901CB
S1130B70EE0FFF1FEE0FFF1FE20FF31FE45CFE4FAB
S1130B80E40FF51F9081953091F4F901EE0FFF1FEA
S1130B90EE0FFF1F2E0F3F1F245C3E4FF901E40FA1
S1130BA0F51F1082615040E081500E942102089597
S1130BB080915901082E000C990B20913B01FC01F6
S1130BC0EE0FFF1FEE0FFF1FE80FF91FE45CFE4F4F
S1130BD0E20FF11D27FDFA958081853011F481E043
S1130BE0089580E008950E94ED02882309F447C027
S1130BF080912C01883008F042C080915901282F3F
S1130C00082E000C330B60913B01A62F062E000C1E
S1130C10BB0BF901EE0FFF1FEE0FFF1FE20FF31FD7
S1130C20E45CFE4FEA0FFB1F9081943041F1409148
S1130C305501F901EE0FFF1FEE0FFF1F2E0F3F1F8F
S1130C40245C3E4FA20FB31F4C930E9421020E94CA
S1130C50A9028091010190E020910001FC01EE0FB6
S1130C60FF1FEE0FFF1FE80FF91FE45CFE4FE20FBA
S1130C70F11D108280912C018F5F80932C01809153
S1130C802C018830E0F150915901852F052E000C7C
S1130C90990B40913B01242F042E000C330BFC01D3
S1130CA0EE0FFF1FEE0FFF1FE80FF91FE45CFE4F6E
S1130CB0E20FF31F708160915501761320C060919B
S1130CC02A0170912B01672BD1F4509301014093B9
S1130CD00001AC01440F551F440F551F840F951F8D
S1130CE0845C9E4FFC01E20FF31F24E0208381E02B
S1130CF090E090932B0180932A010E940803809135
S1130D005901282F082E000C330B60913B01A62FAC
S1130D10062E000CBB0BF901EE0FFF1FEE0FFF1F99
S1130D20E20FF31FE45CFE4FEA0FFB1F9081953046
S1130D3049F540915501F901EE0FFF1FEE0FFF1F1A
S1130D402E0F3F1F245C3E4FA20FB31F4C931092F3
S1130D502B0110922A010E9421020E94A902809173
S1130D60010190E020910001FC01EE0FFF1FEE0F46
S1130D70FF1FE80FF91FE45CFE4FE20FF11D108224
S1130D800E94830408950F931F93CF93DF93082F3A
S1130D90162FD0913B01C09159016D2F8C2F0E94C9
S1130DA06C02482F6D2F8C2F0E94210280915901D3
S1130DB0800F8093590160913B01610F60933B0167
S1130DC0853019F41092590110C0653019F410924D
S1130DD03B010BC08F3F21F484E08093590105C08F
S1130DE06F3F19F484E080933B0143E060913B0141
S1130DF0809159010E942102DF91CF911F910F919F
S1130E00089580913C01813069F4809141018130E1
S1130E1049F480914601813029F480914B0181305D
S1130E2009F4DAC080913D01813069F48091420176
S1130E30813049F480914701813029F480914C013B
S1130E40813009F4CBC080913E01813069F48091F6
S1130E504301813049F480914801813029F4809123
S1130E604D01813009F4BCC080913F01813069F4A7
S1130E7080914401813049F480914901813029F401
S1130E8080914E01813009F4ADC0809140018130E0
S1130E9069F480914501813049F480914A0181309F
S1130EA029F480914F01813009F49EC040914101A1
S1130EB0413069F480914601813049F480914B01BD
S1130EC0813029F480915001813009F48FC08091E0
S1130ED04201813069F490914701913049F4909135
S1130EE04C01913029F490915101913009F480C062
S1130EF090914301913069F420914801213049F4E3
S1130F0020914D01213029F420915201213009F41E
S1130F1071C020914401213069F43091490131308C
S1130F2049F430914E01313029F43091530131307C
S1130F3009F462C030914501313069F450914A019D
S1130F40513049F450914F01513029F450915401DA
S1130F50513009F453C050915001513059F450911B
S1130F604B01513039F450914601513019F441305C
S1130F7009F446C0813051F440914C01413031F4C0
S1130F8040914701413011F48130E1F1913051F445
S1130F9080914D01813031F480914801813011F408
S1130FA0913091F1213051F480914E01813031F42E
S1130FB080914901813011F4213041F1313041F502
S1130FC080914F01813031F580914A01813021F5C2
S1130FD0313021F180E0089581E0089581E00895A1
S1130FE081E0089581E0089581E0089581E0089505
S1130FF081E0089581E0089581E0089581E00895F5
S113100081E0089581E0089581E0089581E00895E4
S113101080E0089580E0089580E0089581E00895D7
S113102080913C01823069F480914101823049F41D
S113103080914601823029F480914B01823009F479
S1131040DAC080913D01823069F48091420182309E
S113105049F480914701823029F480914C01823017
S113106009F4CBC080913E01823069F48091430140
S1131070823049F480914801823029F480914D01F5
S1131080823009F4BCC080913F01823069F48091C0
S11310904401823049F480914901823029F48091DD
S11310A04E01823009F4ADC080914001823069F470
S11310B080914501823049F480914A01823029F4BB
S11310C080914F01823009F49EC040914101423029
S11310D069F480914601823049F480914B01823059
S11310E029F480915001823009F48FC0809142012B
S11310F0823069F490914701923049F490914C0107
S1131100923029F490915101923009F480C0909169
S11311104301923069F420914801223049F420912E
S11311204D01223029F420915201223009F471C07A
S113113020914401223069F430914901323049F45C
S113114030914E01323029F430915301323009F498
S113115062C030914501323069F450914A015230F5
S113116049F450914F01523029F4509154015230B6
S113117009F453C050915001523059F450914B012D
S1131180523039F450914601523019F4423009F486
S113119046C0823051F440914C01423031F44091C8
S11311A04701423011F48230E1F1923051F48091E0
S11311B04D01823031F480914801823011F4923033
S11311C091F1223051F480914E01823031F48091BA
S11311D04901823011F4223041F1323041F58091DD
S11311E04F01823031F580914A01823021F532304D
S11311F021F180E0089581E0089581E0089581E07F
S1131200089581E0089581E0089581E0089581E0E2
S1131210089581E0089581E0089581E0089581E0D2
S1131220089581E0089581E0089581E0089580E0C3
S1131230089580E0089580E0089581E00895809104
S11312403C01813069F480913D01813049F4809101
S11312503E01813029F480913F01813009F4E3C0DB
S113126080914101813069F480914201813049F4D7
S113127080914301813029F480914401813009F443
S1131280D4C080914601813069F480914701813056
S113129049F480914801813029F4809149018130D9
S11312A009F4C5C080914B01813069F480914C01EF
S11312B0813049F480914D01813029F480914E01AF
S11312C0813009F4B6C080915001813069F4809175
S11312D05101813049F480915201813029F4809187
S11312E05301813009F4A7C080913D01813069F434
S11312F090913E01913049F490913F01913029F44D
S113130090914001913009F498C09091420191303C
S113131069F420914301213049F4209144012130A2
S113132029F420914501213009F489C02091470115
S1131330213069F430914801313049F43091490148
S1131340313029F430914A01313009F47AC03091B6
S11313504C01313069F440914D01413049F44091E0
S11313604E01413029F440914F01413009F46BC0E2
S113137040915101413069F450915201513049F486
S113138050915301513029F450915401513009F4D2
S11313905CC050914001513059F450913F0151309B
S11313A039F450913E01513019F4813009F44FC0A1
S11313B080914501813059F480914401813039F4A0
S11313C080914801813019F4913009F442C0809130
S11313D04A01813051F480914901813031F4809186
S11313E04801813011F42130B1F180914F018130F5
S11313F051F480914E01813031F480914801813063
S113140011F4313051F180915401813041F58091D2
S11314105301813031F580914801813021F541300B
S113142021F180E0089581E0089581E0089581E04C
S1131430089581E0089581E0089581E0089581E0B0
S1131440089581E0089581E0089581E0089581E0A0
S1131450089581E0089581E0089581E0089580E091
S1131460089580E0089580E0089581E008958091D2
S11314703C01823069F480913D01823049F48091CD
S11314803E01823029F480913F01823009F4E3C0A7
S113149080914101823069F480914201823049F4A3
S11314A080914301823029F480914401823009F40F
S11314B0D4C080914601823069F480914701823022
S11314C049F480914801823029F4809149018230A5
S11314D009F4C5C080914B01823069F480914C01BC
S11314E0823049F480914D01823029F480914E017B
S11314F0823009F4B6C080915001823069F4809141
S11315005101823049F480915201823029F4809152
S11315105301823009F4A7C080913D01823069F4FF
S113152090913E01923049F490913F01923029F418
S113153090914001923009F498C090914201923008
S113154069F420914301223049F42091440122306E
S113155029F420914501223009F489C020914701E2
S1131560223069F430914801323049F43091490114
S1131570323029F430914A01323009F47AC0309182
S11315804C01323069F440914D01423049F44091AC
S11315904E01423029F440914F01423009F46BC0AE
S11315A040915101423069F450915201523049F452
S11315B050915301523029F450915401523009F49E
S11315C05CC050914001523059F450913F01523067
S11315D039F450913E01523019F4823009F44FC06D
S11315E080914501823059F480914401823039F46C
S11315F080914801823019F4923009F442C08091FC
S11316004A01823051F480914901823031F4809151
S11316104801823011F42230B1F180914F018230BF
S113162051F480914E01823031F48091480182302E
S113163011F4323051F180915401823041F580919E
S11316405301823031F580914801823021F54230D6
S113165021F180E0089581E0089581E0089581E01A
S1131660089581E0089581E0089581E0089581E07E
S1131670089581E0089581E0089581E0089581E06E
S1131680089581E0089581E0089581E0089580E05F
S1131690089580E0089580E0089581E008958091A0
S11316A03C01813061F490914201913041F4909178
S11316B04801913021F490914E01913071F18230C2
S11316C061F480914201823041F48091480182307A
S11316D021F480914E01823011F1809154018230C5
S11316E061F490914E01923041F49091480192300E
S11316F021F4909142019230A1F08130A1F48091C3
S11317004E01813091F480914801813081F48091BF
S11317104201813071F080E0089581E0089581E014
S1131720089581E0089580E0089580E0089580E0C0
S1131730089581E0089580914001813061F4909191
S11317404401913041F490914801913021F49091F9
S11317504C01913071F190915001923061F42091DB
S11317604C01223041F420914801223021F420918F
S11317704401223001F1823061F4809144018230CD
S113178041F480914801823021F480914C018230EF
S1131790A1F09130A1F480914C01813091F48091B9
S11317A04801813081F480914401813071F080E0FE
S11317B0089581E0089581E0089581E0089580E02E
S11317C0089580E0089580E0089581E0089580916F
S11317D05501813021F0823019F481E0089582E0CE
S11317E008950E941F09811115C00E9401078111EB
S11317F013C00E944F0B811111C00E941008811167
S11318000FC00E94370A81110DC00E949B0B8111E9
S11318100BC0089581E0089581E0089581E0089562
S113182081E0089581E0089581E00895ECE7F0E017
S113183080818E7F8083EAE7F0E08081806480830A
S113184080917A0086FDFCCF809178009091790098
S11318509093350180933401ECE7F0E0808181605E
S11318608083EAE7F0E080818064808380917A005D
S113187086FDFCCF8091780090917900909333019C
S113188080933201089580E480937C0086E88093FD
S11318907A0008950F931F93CF930E94160C8091A2
S11318A0340190913501813021E0920770F181304B
S11318B043E0940760F520913201309133012130E7
S11318C043E0340730F5213041E0340720F1409102
S11318D03101433029F482389140F8F4C3E026C042
S11318E0443029F482389240D0F0C4E01FC0413023
S11318F029F422383240A8F0C1E018C0423099F4EB
S11319002238314090F4C2E011C0C3E00FC0C4E0FB
S11319100DC0C1E00BC0C2E009C0CFEF07C0CFEFDC
S113192005C0CFEF03C0CFEF01C0CFEFCC2329F127
S113193080913101C81313C00E947A1000912D01C7
S113194010912E0120912F0130913001045D1E4F22
S11319502F4F3F4F601771078207930780F0C093A2
S113196031010E947A1060932D0170932E018093AF
S11319702F01909330018C2F03C08C2F01C08FEF67
S1131980CF911F910F91089580E80E941610089539
S11319901F93CF93DF938031B0F46830A0F4142FF9
S11319A0C62FD82F81E00E9442106C2F677080E10F
S11319B0689F900111248D2F8F70822B0E944210FA
S11319C0812F0E944210DF91CF911F9108950F93B0
S11319D01F93CF938830A0F48B01C82F82E00E941C
S11319E042108C2F87700E944210C0E007C0F8019B
S11319F0EC0FF11D80810E944210CF5FC031B8F31B
S1131A00CF911F910F9108950F931F93CF9380311E
S1131A10A0F48B01C82F83E00E9442108C2F8F709A
S1131A200E944210C0E007C0F801EC0FF11D808154
S1131A300E944210CF5FC830B8F3CF911F910F912D
S1131A4008958FE00E94421008950E94C40C0E94E1
S1131A50F0000E94430C40E060E07BE480E090E012
S1131A600E942E0F0E94621080E88AB980910201C0
S1131A708093B300789408950E9459106AE070E04E
S1131A808AE090E00E9448108DE891E09F938F9344
S1131A900E942E116CE070E08AE090E00E944810F1
S1131AA087E591E09F938F930E942E110E94DD01A0
S1131AB00F900F900F900F900E94750F882339F0AC
S1131AC080917002909171020E94F01001C08FEF1A
S1131AD0833731F0833521F00E9400018F3F61F399
S1131AE008950E9459100E9445020E9400010E941C
S1131AF07C0F08956DE070E08AE090E00E94481049
S1131B000E94E70B1F928F938DE091E09F938F9338
S1131B100E942E116EE070E08AE090E00E9448106E
S1131B2083E091E09F938F930E942E116FE070E009
S1131B308AE090E00E94481084EE90E09F938F9397
S1131B400E942E118DB79EB708960FB6F8949EBFCB
S1131B500FBE8DBF0E9400018F3FE1F308958F9265
S1131B609F92AF92BF92CF92DF92EF92FF921F9318
S1131B70CF93DF9367E070E08EE190E00E9448101D
S1131B808DE391E09F938F930E942E110E947A100F
S1131B904B015C010F900F90DFC00E944A0C182F7C
S1131BA00E94F10B813011F40E947A0D0E94750F8E
S1131BB0882341F080917002909171020E94F0108C
S1131BC0C82F01C0CFEF0E940001D82FC33731F0D6
S1131BD0C33521F0882311F01330B1F46FEF80E0A6
S1131BE00E94C3060E94D805882319F08FEF8BB991
S1131BF005C00E94D805811101C01BB80E94F10BD9
S1131C00813011F40E947A0DC73731F0C73521F0C5
S1131C10D13011F01430B1F461E080E00E94C306C9
S1131C200E94D805882319F08FEF8BB905C00E9454
S1131C30D805811101C01BB80E94F10B813011F449
S1131C400E947A0DC43631F0C43421F0D23011F040
S1131C501230B1F460E081E00E94C3060E94D8050E
S1131C60882319F08FEF8BB905C00E94D805811124
S1131C7001C01BB80E94F10B813011F40E947A0D4F
S1131C80C13631F0C13421F0D33011F01130B1F448
S1131C9060E08FEF0E94C3060E94D805882319F0E4
S1131CA08FEF8BB905C00E94D805811101C01BB804
S1131CB00E94F10B813011F40E947A0DC03249F474
S1131CC00E94F3051BB80E94F10B813011F40E94AD
S1131CD07A0DC03511F0C03761F566E070E08EE131
S1131CE090E00E94481081E391E09F938F930E94BB
S1131CF02E110F900F9080917002909171020E94AA
S1131D00F010803711F08035B1F766E070E08EE1B5
S1131D1090E00E94481085E291E09F938F930E9487
S1131D202E1168E070E085E290E00E9448100F9068
S1131D300F900E947A106B017C01D501C4018C5074
S1131D409E4FAF4FBF4FC816D906EA06FB0620F0D8
S1131D500E948202460157010E94F10B882309F474
S1131D601CCFDF91CF911F91FF90EF90DF90CF9028
S1131D70BF90AF909F908F9008950E94250D0E9470
S1131D803C0D0E94710D0E94AF0D0E947A0DF9CF97
S1131D90CF93C82F8A3019F48DE00E94C80E9FB7E4
S1131DA0907802C0992329F180915D018F3FD1F38E
S1131DB0F894E0915C0181E08E0F80935C01F0E087
S1131DC0E25AFE4FC08380915D018F5F80935D0175
S1131DD080915C018F3F11F410925C01E1ECF0E022
S1131DE0808180628083992339F0789480E090E048
S1131DF005C081E090E002C080E090E0CF910895BA
S1131E0080916F028823E1F32FB72078F8948091B2
S1131E105D0230916F0290E0831B91095AF4E091C6
S1131E205D0280916F02F0E0E81BF109E259FD4F79
S1131E3080810AC0E0915D0280916F02F0E0E81BAE
S1131E40F109E25AFD4F808190916F029150909375
S1131E506F02222309F0789490E0089510925C01B7
S1131E6010925D0110925D0210926F0210926E0248
S1131E7040933601DC01CB01880F991FAA1FBB1FB9
S1131E80880F991FAA1FBB1F9C01AD01220F331F8E
S1131E90441F551F60E072E18AE790E00E94AF1092
S1131EA0BA01A9014F5F5F4F6F4F7F4FDB01CA013A
S1131EB01AF40196A11DB11DB595A795979587951F
S1131EC001979093C5008093C400E1ECF0E088E1B1
S1131ED08083808180688083E0E7F2E086E091E09F
S1131EE09383828391838083089590916F0281E02C
S1131EF0911101C080E0089510925D0210926F026A
S1131F0008951F920F920FB60F9211242F938F935F
S1131F109F93EF93FF9380915D01882329F1809132
S1131F205C0120915D0190E0821B91095AF4E091DB
S1131F305C0180915D01F0E0E81BF109E35AFD4F7B
S1131F4090810AC0E0915C0180915D01F0E0E81BA2
S1131F50F109E25AFE4F908180915D018150809396
S1131F605D019093C60005C0E1ECF0E080818F7DB7
S1131F708083FF91EF919F918F912F910F900FBECE
S1131F800F901F9018951F920F920FB60F92112465
S1131F902F933F934F935F936F937F938F939F936D
S1131FA0AF93BF93CF93EF93FF93C091C6008091FB
S1131FB03601882349F080915D018F3F29F060E06C
S1131FC070E08C2F0E94C80E80916F02803120F047
S1131FD081E080936E0218C0CD3009F4CAE0E0912C
S1131FE05D0281E08E0F80935D02F0E0E25AFD4FC6
S1131FF0C08380916F028F5F80936F0280915D0236
S1132000803111F410925D02FF91EF91CF91BF9155
S1132010AF919F918F917F916F915F914F913F917C
S11320202F910F900FBE0F901F90189594B1906B45
S113203094B995B1906195B990E59CBD883021F033
S1132040803211F0823019F491E09DBD01C01DBCB5
S1132050803269F028F4883071F0803161F00EC06C
S1132060803429F0803851F48CB581608CBD8CB5F6
S113207082608CBD03C08CB581608CBD85B18F7EC0
S113208085B908958EBD0DB407FEFDCF8EB50895B4
S11320909F938F937F936F9388E991E09F938F939E
S11320A00E942E110F900F900F900F900F900F9091
S11320B0089583E991E09F938F930E942E110F90CE
S11320C00F9008951092370110923801109239013F
S11320D010923A0116BC8CE787BD82E084BD83E090
S11320E085BDEEE6F0E080818260808385B38270F6
S11320F085BB08958FB7282F2078F8946091370115
S1132100709138018091390190913A01222309F0AC
S1132110789408951F920F920FB60F9211248F9303
S11321209F93AF93BF938091370190913801A09111
S11321303901B0913A010196A11DB11D8093370177
S113214090933801A0933901B0933A01BF91AF91B4
S11321509F918F910F900FBE0F901F901895052E91
S113216097FB1EF400940E94C61057FD07D00E94EE
S1132170CE1007FC03D04EF40C94C6105095409535
S1132180309521953F4F4F4F5F4F0895909580951F
S1132190709561957F4F8F4F9F4F0895A1E21A2E3E
S11321A0AA1BBB1BFD010DC0AA1FBB1FEE1FFF1FF7
S11321B0A217B307E407F50720F0A21BB30BE40B47
S11321C0F50B661F771F881F991F1A9469F760958E
S11321D07095809590959B01AC01BD01CF01089548
S11321E0CF93DF93EC012B8120FF33C026FF0AC07D
S11321F02F7B2B838E819F8101969F838E838A817F
S113220090E029C022FF0FC0E881F9818081082E67
S1132210000C990B009719F420622B831AC0319695
S1132220F983E8830EC0EA85FB85099597FF09C009
S11322302B81019611F080E201C080E1822B8B8317
S113224008C02E813F812F5F3F4F3F832E83992704
S113225002C08FEF9FEFDF91CF910895A0E0B0E02F
S1132260E4E3F1E10C94F313AE01495F5F4FDA014B
S11322706D917D91AD0100E712E0F80182819381B7
S1132280DC0113962C911397286013962C930E94CB
S11322905411D8011296ED91FC9113972381277F55
S11322A02383E4E00C940F14ABE0B0E0EAE5F1E141
S11322B00C94E5136C017B018A01FC0117821682E0
S11322C0838181FFCCC1CE0101963C01F60193814B
S11322D0F70193FD859193FF81917F01882309F490
S11322E0BAC1853239F493FD859193FF81917F01C1
S11322F0853229F4B60190E00E944B13E7CF912C6C
S1132300212C312CFFE1F315D8F08B3279F038F41D
S1132310803279F08332A1F4232D20611DC08D32E7
S113232061F0803369F4232D216016C0832D82600F
S1132330382EE32DE4603E2E2AC0F32DF8601DC034
S113234037FC2DC020ED280F2A3040F08E32B9F42E
S113235036FC81C1232D2064322E19C036FE06C0FE
S11323608AE0989E200D1124922E11C0EAE02E9E40
S1132370200D1124222EF32DF0623F2E08C08C363E
S113238021F4832D8068382E02C0883641F4F70189
S113239093FD859193FF81917F018111B3CF982F94
S11323A09F7D9554933028F40C5F1F4F9FE39983CE
S11323B00DC0833631F0833771F0833509F059C08D
S11323C021C0F801808189830E5F1F4F8824839484
S11323D0912C530113C02801F2E04F0E511CF80157
S11323E0A080B18036FE03C0692D70E002C06FEF9B
S11323F07FEFC5010E9440134C018201F32DFF774A
S11324003F2E16C0280122E0420E511CF801A08084
S1132410B18036FE03C0692D70E002C06FEF7FEF1C
S1132420C5010E9435134C01F32DF0683F2E820143
S113243033FC1BC0822D90E088169906B0F4B601D7
S113244080E290E00E944B132A94F4CFF50137FC0C
S1132450859137FE81915F01B60190E00E944B1394
S113246021102A9421E0821A91088114910471F7B1
S1132470E8C0843611F0893641F5F80137FE07C00B
S113248060817181828193810C5F1F4F08C06081DC
S11324907181072E000C880B990B0E5F1F4FF32DD3
S11324A0FF763F2E97FF09C09095809570956195B2
S11324B07F4F8F4F9F4FF0683F2E2AE030E0A301FB
S11324C00E948713882E861845C0853731F4232D42
S11324D02F7EB22E2AE030E025C0932D997FB92EAD
S11324E08F36C1F018F4883579F0B5C0803719F00B
S11324F0883721F0B0C0E92FE061BE2EB4FE0DC0D4
S1132500FB2DF460BF2E09C034FE0AC0292F2660BB
S1132510B22E06C028E030E005C020E130E002C061
S113252020E132E0F801B7FE07C060817181828149
S113253093810C5F1F4F06C06081718180E090E041
S11325400E5F1F4FA3010E948713882E8618FB2D50
S1132550FF773F2E36FE0DC0232D2E7FA22E891429
S113256058F434FE0BC032FC09C0832D8E7EA82E95
S113257005C0B82CA32C03C0B82C01C0B92CA4FEF0
S11325800FC0FE01E80DF11D8081803321F49A2DE6
S1132590997EA92E09C0A2FE06C0B394B39404C0C8
S11325A08A2D867809F0B394A3FC11C0A0FE06C05E
S11325B0B21488F4280C922C9B180EC0B21460F448
S11325C0B60180E290E00E944B13B394F7CFB214AB
S11325D018F42B1802C0982C212CA4FE10C0B601AC
S11325E080E390E00E944B13A2FE17C0A1FC03C03D
S11325F088E790E002C088E590E0B6010CC08A2D1F
S1132600867859F0A1FE02C08BE201C080E2A7FCEB
S11326108DE2B60190E00E944B13891438F4B601A0
S113262080E390E00E944B139A94F7CF8A94F301CD
S1132630E80DF11D8081B60190E00E944B138110DA
S1132640F5CF222009F442CEB60180E290E00E9448
S11326504B132A94F6CFF6018681978102C08FEF3F
S11326609FEF2B96E2E10C940114FC01059061505C
S113267070400110D8F7809590958E0F9F1F089594
S1132680FC016150704001900110D8F7809590953D
S11326908E0F9F1F08950F931F93CF93DF93FB011A
S11326A0238121FD03C08FEF9FEF2CC022FF16C0B2
S11326B046815781248135814217530744F4A08110
S11326C0B1819D012F5F3F4F318320838C932681FD
S11326D037812F5F3F4F3783268314C08B01EC0172
S11326E0FB010084F185E02D0995892BE1F6D801E1
S11326F016968D919C911797019617969C938E939D
S11327001697CE01DF91CF911F910F910895FA0191
S1132710AA27283051F1203181F1E8946F936E7F1C
S11327206E5F7F4F8F4F9F4FAF4FB1E03ED0B4E00D
S11327303CD0670F781F891F9A1FA11D680F791F4E
S11327408A1F911DA11D6A0F711D811D911DA11D5F
S113275020D009F468943F912AE0269F112430196F
S1132760305D3193DEF6CF010895462F4770405D0A
S11327704193B3E00FD0C9F7F6CF462F4F70405DB9
S11327804A3318F0495D31FD4052419302D0A9F714
S1132790EACFB4E0A6959795879577956795BA950E
S11327A0C9F700976105710508959B01AC010A2ED4
S11327B006945795479537952795BA95C9F7620FAB
S11327C0731F841F951FA01D08952F923F924F924F
S11327D05F926F927F928F929F92AF92BF92CF92AD
S11327E0DF92EF92FF920F931F93CF93DF93CDB7B6
S11327F0DEB7CA1BDB0B0FB6F894DEBF0FBECDBF2E
S113280009942A88398848885F846E847D848C84FE
S11328109B84AA84B984C884DF80EE80FD800C8107
S11328201B81AA81B981CE0FD11D0FB6F894DEBFEA
S10F28300FBECDBFED010895F894FFCF5A
S113283C0808083D00000000000300000000C80E5A
S113284C000F0000417D417C54547D55557C106C27
S107285C3945453978
S9030000FC
